:020000020000FC
:020000004CC0F2
:10001A005FB7E2BE0F181E0839F401E00D2106BBD6
:10002A0000906000109061002F183E0839F402E039
:10003A000D2106BB20906300309064004F185E08C3
:10004A0039F404E00D2106BB409066005090670029
:10005A006F187E0839F408E00D2106BB609069002C
:10006A0070906A008F189E0839F400E10D2106BBD2
:10007A0080906C0090906D00AF18BE0839F400E2D1
:10008A000D2106BBA0906F00B09070005FBF18955D
:10009A000FEF07BB00E008BB00E001BB01E002BBB9
:1000AA0000E002B907E209B900E10AB906E003B9BA
:1000BA0001E003BF03E806BF01E009BF01E0F02E3B
:1000CA00EE240FEF102E302E502E702E902EB02EC2
:1000DA00DD247894BED027FD422F403809F477C03A
:1000EA00403971F0403E09F0F5CF27FDB2D0B1D0CA
:1000FA002695269526952E1D37E4321B36BFEACF64
:10010A0027FDA7D0322FA5D0203009F464C0330FC1
:10011A00F4E0E0E0E30F1D2D169568F011E0F89485
:10012A00D12A1590049010926100009260003093D9
:10013A0062007894CFCF169568F012E0F894D12A2D
:10014A0035902490309264002092630030936500C9
:10015A007894C0CF169568F014E0F894D12A559097
:10016A0044905092670040926600309368007894F9
:10017A00B1CF169568F018E0F894D12A759064907A
:10018A0070926A006092690030936B007894A2CFF3
:10019A00169568F010E1F894D12A9590849090927F
:1001AA006D0080926C0030936E00789493CF169510
:1001BA0068F010E2F894D12AB590A490B092700039
:1001CA00A0926F0030937100789484CF83CF27FD7B
:1001DA0040D0322F3ED0330F10916200131731F402
:1001EA001EEFD1221FEF112EC09874CF1091650017
:1001FA00131731F41DEFD1221FEF312EC1986ACFA8
:10020A0010916800131731F41BEFD1221FEF512E02
:10021A00C29860CF10916B00131731F417EFD122F7
:10022A001FEF712EC39856CF10916E00131731F439
:10023A001FEED1221FEF912EC4984CCF109171005E
:10024A00131731F41FEDD1221FEFB12EC59842CFFB
:0A025A0041CF5F9BFECF2CB1089549
:10040000449A40C03D1E39B03673336430822DC9E2
:100410002B3728CA26802457224D20601E8F1CD8D7
:100420001B3919B2184116E5159C14651340122B9F
:10043000112610300F470E6C0D9D0CD90C200B723D
:100440000ACE0A3309A009160893081807A407362C
:1004500006CE066D061005B90567051904D0048B94
:10046000044A040C03D2039B03670336030802DD2E
:1004700002B3028D026802450225020601E901CDA0
:1004800001B4019B0184016E015A0146013401232C
:100490000112010300F400E700DA00CE00C200B749
:1004A00000AD00A3009A009100890082007A0073D9
:1004B000006D00670061005C00560052004D00496D
:1004C00000450041003D003A003600330031002E67
:1004D000002B00290027002400220020001F001DFF
:1004E000001B001A00180017001600140013001259
:0204F0000011F9
:100500007F7F7F7F7F7F7F7F7F7F7F7F7F7F7F7FFB
:100510007F7F7F7F7F7F7F7F7F7F7F7F7F7F7F7FEB
:100520007F7F7F80808080808080808080807F7FD0
:100530007F7F7F7E7E7E7E7E7E7E7E7E7E7E7F7FD6
:100540007F7F808080818181818181818080807FA7
:100550007F7F7E7E7E7D7D7D7D7D7D7D7E7E7E7FBF
:100560007F8080818181828282828281818180807C
:100570007F7E7E7D7D7D7C7C7C7C7C7D7D7D7E7EAA
:100580007F80818182828383838383828281818051
:100590007F7E7D7D7C7C7B7B7B7B7B7C7C7D7D7E95
:1005A0007F80818283838484848484838382818026
:1005B0007F7E7D7C7B7B7A7A7A7A7A7B7B7C7D7E80
:1005C0007F808182838485858585858483828180FF
:1005D0007F7E7D7C7B7A79797979797A7B7C7D7E67
:1005E0007F808283848585868686858584838280D4
:1005F0007F7E7C7B7A797978787879797A7B7C7E52
:00000001FF
